{
    "_format": "hh-sol-artifact-1",
    "contractName": "Caller",
    "sourceName": "contracts/Caller.sol",
    "abi": [
        {
            "inputs": [
                {
                    "internalType": "address",
                    "name": "_NFTContractAddress",
                    "type": "address"
                },
                {
                    "internalType": "contract ISuperfluid",
                    "name": "host",
                    "type": "address"
                },
                {
                    "internalType": "contract IConstantFlowAgreementV1",
                    "name": "cfa",
                    "type": "address"
                },
                {
                    "internalType": "contract ISuperToken",
                    "name": "acceptedToken",
                    "type": "address"
                }
            ],
            "stateMutability": "nonpayable",
            "type": "constructor"
        },
        {
            "inputs": [],
            "name": "NotStreaming",
            "type": "error"
        },
        {
            "inputs": [],
            "name": "Streaming",
            "type": "error"
        },
        {
            "anonymous": false,
            "inputs": [
                {
                    "indexed": true,
                    "internalType": "address",
                    "name": "previousOwner",
                    "type": "address"
                },
                {
                    "indexed": true,
                    "internalType": "address",
                    "name": "newOwner",
                    "type": "address"
                }
            ],
            "name": "OwnershipTransferred",
            "type": "event"
        },
        {
            "inputs": [],
            "name": "_acceptedToken",
            "outputs": [
                {
                    "internalType": "contract ISuperToken",
                    "name": "",
                    "type": "address"
                }
            ],
            "stateMutability": "view",
            "type": "function"
        },
        {
            "inputs": [
                {
                    "internalType": "address",
                    "name": "acceptedToken",
                    "type": "address"
                }
            ],
            "name": "changeSuperToken",
            "outputs": [],
            "stateMutability": "nonpayable",
            "type": "function"
        },
        {
            "inputs": [],
            "name": "oldURI",
            "outputs": [
                {
                    "internalType": "string",
                    "name": "",
                    "type": "string"
                }
            ],
            "stateMutability": "view",
            "type": "function"
        },
        {
            "inputs": [],
            "name": "owner",
            "outputs": [
                {
                    "internalType": "address",
                    "name": "",
                    "type": "address"
                }
            ],
            "stateMutability": "view",
            "type": "function"
        },
        {
            "inputs": [],
            "name": "renounceOwnership",
            "outputs": [],
            "stateMutability": "nonpayable",
            "type": "function"
        },
        {
            "inputs": [
                {
                    "internalType": "string",
                    "name": "_baseTokenUri",
                    "type": "string"
                }
            ],
            "name": "setTokenUri",
            "outputs": [],
            "stateMutability": "nonpayable",
            "type": "function"
        },
        {
            "inputs": [],
            "name": "stopStream",
            "outputs": [],
            "stateMutability": "nonpayable",
            "type": "function"
        },
        {
            "inputs": [],
            "name": "theNFTContractAddress",
            "outputs": [
                {
                    "internalType": "address",
                    "name": "",
                    "type": "address"
                }
            ],
            "stateMutability": "view",
            "type": "function"
        },
        {
            "inputs": [
                {
                    "internalType": "address",
                    "name": "newOwner",
                    "type": "address"
                }
            ],
            "name": "transferOwnership",
            "outputs": [],
            "stateMutability": "nonpayable",
            "type": "function"
        },
        {
            "inputs": [
                {
                    "internalType": "contract IERC20",
                    "name": "token",
                    "type": "address"
                }
            ],
            "name": "withdrawToken",
            "outputs": [],
            "stateMutability": "nonpayable",
            "type": "function"
        }
    ],
    "bytecode": "0x60806040523480156200001157600080fd5b5060405162000e9c38038062000e9c83398101604081905262000034916200014d565b6200003f33620000e4565b600480546001600160a01b03199081166001600160a01b038781169182179093556001805483168785169081179091556002805484168786161790556003805484169486169490941790935560058054909216179055620000a457620000a4620001b5565b6002546001600160a01b0316620000bf57620000bf620001b5565b6003546001600160a01b0316620000da57620000da620001b5565b50505050620001cb565b600080546001600160a01b038381166001600160a01b0319831681178455604051919092169283917f8be0079c531659141344cd1fd0a4f28419497f9722a3daafe3b4186f6b6457e09190a35050565b6001600160a01b03811681146200014a57600080fd5b50565b600080600080608085870312156200016457600080fd5b8451620001718162000134565b6020860151909450620001848162000134565b6040860151909350620001978162000134565b6060860151909250620001aa8162000134565b939692955090935050565b634e487b7160e01b600052600160045260246000fd5b610cc180620001db6000396000f3fe608060405234801561001057600080fd5b506004361061009e5760003560e01c80638947606911610066578063894760691461011c5780638da5cb5b1461012f57806395a7830114610140578063c01d76d514610153578063f2fde38b1461015b57600080fd5b80630675b7c6146100a357806323fcc7e9146100b85780633b82b1aa146100d65780634e5b3c7c146100e9578063715018a614610114575b600080fd5b6100b66100b1366004610825565b61016e565b005b6100c06102a1565b6040516100cd91906108f5565b60405180910390f35b6100b66100e4366004610924565b61032f565b6003546100fc906001600160a01b031681565b6040516001600160a01b0390911681526020016100cd565b6100b6610359565b6100b661012a366004610924565b61036d565b6000546001600160a01b03166100fc565b6005546100fc906001600160a01b031681565b6100b661049c565b6100b6610169366004610924565b610547565b60075460ff16151560010361019657604051632a4b297160e01b815260040160405180910390fd5b60048054604080516351fb83c560e11b815290516001600160a01b039092169263a3f7078a9282820192600092908290030181865afa1580156101dd573d6000803e3d6000fd5b505050506040513d6000823e601f3d908101601f191682016040526102059190810190610971565b6006906102129082610a4a565b506004805460405163033adbe360e11b81526001600160a01b0390911691630675b7c691610242918591016108f5565b600060405180830381600087803b15801561025c57600080fd5b505af1158015610270573d6000803e3d6000fd5b50506007805460ff19166001179055505060055461029e906001600160a01b031666038d7ea4c680006105bd565b50565b600680546102ae906109c2565b80601f01602080910402602001604051908101604052809291908181526020018280546102da906109c2565b80156103275780601f106102fc57610100808354040283529160200191610327565b820191906000526020600020905b81548152906001019060200180831161030a57829003601f168201915b505050505081565b6103376106c1565b600380546001600160a01b0319166001600160a01b0392909216919091179055565b6103616106c1565b61036b600061071b565b565b6103756106c1565b6040516370a0823160e01b81523060048201526001600160a01b0382169063a9059cbb90339083906370a0823190602401602060405180830381865afa1580156103c3573d6000803e3d6000fd5b505050506040513d601f19601f820116820180604052508101906103e79190610b0a565b6040516001600160e01b031960e085901b1681526001600160a01b03909216600483015260248201526044016020604051808303816000875af1158015610432573d6000803e3d6000fd5b505050506040513d601f19601f820116820180604052508101906104569190610b23565b61029e5760405162461bcd60e51b81526020600482015260126024820152712ab730b13632903a37903a3930b739b332b960711b60448201526064015b60405180910390fd5b60075460ff1615156000036104c457604051638680268360e01b815260040160405180910390fd5b6004805460405163033adbe360e11b81526001600160a01b0390911691630675b7c6916104f49160069101610b45565b600060405180830381600087803b15801561050e57600080fd5b505af1158015610522573d6000803e3d6000fd5b50506007805460ff19169055505060055461036b9030906001600160a01b031661076b565b61054f6106c1565b6001600160a01b0381166105b45760405162461bcd60e51b815260206004820152602660248201527f4f776e61626c653a206e6577206f776e657220697320746865207a65726f206160448201526564647265737360d01b6064820152608401610493565b61029e8161071b565b6001600160a01b0382163014806105db57506001600160a01b038216155b156105e4575050565b6001546002546003546040805160008152602081019091526001600160a01b03938416936339255d5b9381169263317e182f60e11b9261062f92909116908890889060448101610bd0565b60408051601f198184030181529181526020820180516001600160e01b03166001600160e01b03199485161790525160e085901b90921682526106759291600401610c10565b6000604051808303816000875af1158015610694573d6000803e3d6000fd5b505050506040513d6000823e601f3d908101601f191682016040526106bc9190810190610971565b505050565b6000546001600160a01b0316331461036b5760405162461bcd60e51b815260206004820181905260248201527f4f776e61626c653a2063616c6c6572206973206e6f7420746865206f776e65726044820152606401610493565b600080546001600160a01b038381166001600160a01b0319831681178455604051919092169283917f8be0079c531659141344cd1fd0a4f28419497f9722a3daafe3b4186f6b6457e09190a35050565b6001546002546003546040805160008152602081019091526001600160a01b03938416936339255d5b93811692635a5999e360e11b9261062f92909116908890889060448101610c57565b634e487b7160e01b600052604160045260246000fd5b604051601f8201601f1916810167ffffffffffffffff811182821017156107f5576107f56107b6565b604052919050565b600067ffffffffffffffff821115610817576108176107b6565b50601f01601f191660200190565b60006020828403121561083757600080fd5b813567ffffffffffffffff81111561084e57600080fd5b8201601f8101841361085f57600080fd5b803561087261086d826107fd565b6107cc565b81815285602083850101111561088757600080fd5b81602084016020830137600091810160200191909152949350505050565b60005b838110156108c05781810151838201526020016108a8565b50506000910152565b600081518084526108e18160208601602086016108a5565b601f01601f19169290920160200192915050565b60208152600061090860208301846108c9565b9392505050565b6001600160a01b038116811461029e57600080fd5b60006020828403121561093657600080fd5b81356109088161090f565b600061094f61086d846107fd565b905082815283838301111561096357600080fd5b6109088360208301846108a5565b60006020828403121561098357600080fd5b815167ffffffffffffffff81111561099a57600080fd5b8201601f810184136109ab57600080fd5b6109ba84825160208401610941565b949350505050565b600181811c908216806109d657607f821691505b6020821081036109f657634e487b7160e01b600052602260045260246000fd5b50919050565b601f8211156106bc57600081815260208120601f850160051c81016020861015610a235750805b601f850160051c820191505b81811015610a4257828155600101610a2f565b505050505050565b815167ffffffffffffffff811115610a6457610a646107b6565b610a7881610a7284546109c2565b846109fc565b602080601f831160018114610aad5760008415610a955750858301515b600019600386901b1c1916600185901b178555610a42565b600085815260208120601f198616915b82811015610adc57888601518255948401946001909101908401610abd565b5085821015610afa5787850151600019600388901b60f8161c191681555b5050505050600190811b01905550565b600060208284031215610b1c57600080fd5b5051919050565b600060208284031215610b3557600080fd5b8151801515811461090857600080fd5b6000602080835260008454610b59816109c2565b80848701526040600180841660008114610b7a5760018114610b9457610bc2565b60ff1985168984015283151560051b890183019550610bc2565b896000528660002060005b85811015610bba5781548b8201860152908301908801610b9f565b8a0184019650505b509398975050505050505050565b6001600160a01b03858116825284166020820152600b83900b6040820152608060608201819052600090610c06908301846108c9565b9695505050505050565b6001600160a01b0383168152606060208201819052600090610c34908301846108c9565b8281036040938401526002815261060f60f31b6020820152919091019392505050565b6001600160a01b038581168252848116602083015283166040820152608060608201819052600090610c06908301846108c956fea2646970667358221220d34bc9e21f490257c6142af6efec245ad14f4187d487e894857851a8528fcc6964736f6c63430008110033",
    "linkReferences": {},
    "deployedLinkReferences": {}
}