{
  "_format": "hh-sol-artifact-1",
  "contractName": "HolaNFT",
  "sourceName": "contracts/NFT.sol",
  "abi": [
    {
      "inputs": [],
      "stateMutability": "nonpayable",
      "type": "constructor"
    },
    {
      "anonymous": false,
      "inputs": [
        {
          "indexed": true,
          "internalType": "address",
          "name": "owner",
          "type": "address"
        },
        {
          "indexed": true,
          "internalType": "address",
          "name": "approved",
          "type": "address"
        },
        {
          "indexed": true,
          "internalType": "uint256",
          "name": "tokenId",
          "type": "uint256"
        }
      ],
      "name": "Approval",
      "type": "event"
    },
    {
      "anonymous": false,
      "inputs": [
        {
          "indexed": true,
          "internalType": "address",
          "name": "owner",
          "type": "address"
        },
        {
          "indexed": true,
          "internalType": "address",
          "name": "operator",
          "type": "address"
        },
        {
          "indexed": false,
          "internalType": "bool",
          "name": "approved",
          "type": "bool"
        }
      ],
      "name": "ApprovalForAll",
      "type": "event"
    },
    {
      "anonymous": false,
      "inputs": [
        {
          "indexed": true,
          "internalType": "address",
          "name": "previousOwner",
          "type": "address"
        },
        {
          "indexed": true,
          "internalType": "address",
          "name": "newOwner",
          "type": "address"
        }
      ],
      "name": "OwnershipTransferred",
      "type": "event"
    },
    {
      "anonymous": false,
      "inputs": [
        {
          "indexed": true,
          "internalType": "address",
          "name": "from",
          "type": "address"
        },
        {
          "indexed": true,
          "internalType": "address",
          "name": "to",
          "type": "address"
        },
        {
          "indexed": true,
          "internalType": "uint256",
          "name": "tokenId",
          "type": "uint256"
        }
      ],
      "name": "Transfer",
      "type": "event"
    },
    {
      "inputs": [
        {
          "internalType": "address",
          "name": "",
          "type": "address"
        }
      ],
      "name": "addressTime",
      "outputs": [
        {
          "internalType": "uint256",
          "name": "",
          "type": "uint256"
        }
      ],
      "stateMutability": "view",
      "type": "function"
    },
    {
      "inputs": [
        {
          "internalType": "address",
          "name": "to",
          "type": "address"
        },
        {
          "internalType": "uint256",
          "name": "tokenId",
          "type": "uint256"
        }
      ],
      "name": "approve",
      "outputs": [],
      "stateMutability": "nonpayable",
      "type": "function"
    },
    {
      "inputs": [
        {
          "internalType": "address",
          "name": "owner",
          "type": "address"
        }
      ],
      "name": "balanceOf",
      "outputs": [
        {
          "internalType": "uint256",
          "name": "",
          "type": "uint256"
        }
      ],
      "stateMutability": "view",
      "type": "function"
    },
    {
      "inputs": [
        {
          "internalType": "uint256",
          "name": "tokenId",
          "type": "uint256"
        }
      ],
      "name": "getApproved",
      "outputs": [
        {
          "internalType": "address",
          "name": "",
          "type": "address"
        }
      ],
      "stateMutability": "view",
      "type": "function"
    },
    {
      "inputs": [
        {
          "internalType": "address",
          "name": "owner",
          "type": "address"
        },
        {
          "internalType": "address",
          "name": "operator",
          "type": "address"
        }
      ],
      "name": "isApprovedForAll",
      "outputs": [
        {
          "internalType": "bool",
          "name": "",
          "type": "bool"
        }
      ],
      "stateMutability": "view",
      "type": "function"
    },
    {
      "inputs": [],
      "name": "name",
      "outputs": [
        {
          "internalType": "string",
          "name": "",
          "type": "string"
        }
      ],
      "stateMutability": "view",
      "type": "function"
    },
    {
      "inputs": [],
      "name": "owner",
      "outputs": [
        {
          "internalType": "address",
          "name": "",
          "type": "address"
        }
      ],
      "stateMutability": "view",
      "type": "function"
    },
    {
      "inputs": [
        {
          "internalType": "uint256",
          "name": "tokenId",
          "type": "uint256"
        }
      ],
      "name": "ownerOf",
      "outputs": [
        {
          "internalType": "address",
          "name": "",
          "type": "address"
        }
      ],
      "stateMutability": "view",
      "type": "function"
    },
    {
      "inputs": [],
      "name": "renounceOwnership",
      "outputs": [],
      "stateMutability": "nonpayable",
      "type": "function"
    },
    {
      "inputs": [],
      "name": "safeMint",
      "outputs": [],
      "stateMutability": "nonpayable",
      "type": "function"
    },
    {
      "inputs": [
        {
          "internalType": "address",
          "name": "from",
          "type": "address"
        },
        {
          "internalType": "address",
          "name": "to",
          "type": "address"
        },
        {
          "internalType": "uint256",
          "name": "tokenId",
          "type": "uint256"
        }
      ],
      "name": "safeTransferFrom",
      "outputs": [],
      "stateMutability": "nonpayable",
      "type": "function"
    },
    {
      "inputs": [
        {
          "internalType": "address",
          "name": "from",
          "type": "address"
        },
        {
          "internalType": "address",
          "name": "to",
          "type": "address"
        },
        {
          "internalType": "uint256",
          "name": "tokenId",
          "type": "uint256"
        },
        {
          "internalType": "bytes",
          "name": "data",
          "type": "bytes"
        }
      ],
      "name": "safeTransferFrom",
      "outputs": [],
      "stateMutability": "nonpayable",
      "type": "function"
    },
    {
      "inputs": [
        {
          "internalType": "address",
          "name": "_adr",
          "type": "address"
        }
      ],
      "name": "sendTo",
      "outputs": [],
      "stateMutability": "nonpayable",
      "type": "function"
    },
    {
      "inputs": [
        {
          "internalType": "address",
          "name": "operator",
          "type": "address"
        },
        {
          "internalType": "bool",
          "name": "approved",
          "type": "bool"
        }
      ],
      "name": "setApprovalForAll",
      "outputs": [],
      "stateMutability": "nonpayable",
      "type": "function"
    },
    {
      "inputs": [
        {
          "internalType": "string",
          "name": "_newBaseURI",
          "type": "string"
        }
      ],
      "name": "setBaseURI",
      "outputs": [],
      "stateMutability": "nonpayable",
      "type": "function"
    },
    {
      "inputs": [
        {
          "internalType": "bytes4",
          "name": "interfaceId",
          "type": "bytes4"
        }
      ],
      "name": "supportsInterface",
      "outputs": [
        {
          "internalType": "bool",
          "name": "",
          "type": "bool"
        }
      ],
      "stateMutability": "view",
      "type": "function"
    },
    {
      "inputs": [],
      "name": "symbol",
      "outputs": [
        {
          "internalType": "string",
          "name": "",
          "type": "string"
        }
      ],
      "stateMutability": "view",
      "type": "function"
    },
    {
      "inputs": [
        {
          "internalType": "uint256",
          "name": "tokenId",
          "type": "uint256"
        }
      ],
      "name": "tokenURI",
      "outputs": [
        {
          "internalType": "string",
          "name": "",
          "type": "string"
        }
      ],
      "stateMutability": "view",
      "type": "function"
    },
    {
      "inputs": [
        {
          "internalType": "address",
          "name": "from",
          "type": "address"
        },
        {
          "internalType": "address",
          "name": "to",
          "type": "address"
        },
        {
          "internalType": "uint256",
          "name": "tokenId",
          "type": "uint256"
        }
      ],
      "name": "transferFrom",
      "outputs": [],
      "stateMutability": "nonpayable",
      "type": "function"
    },
    {
      "inputs": [
        {
          "internalType": "address",
          "name": "newOwner",
          "type": "address"
        }
      ],
      "name": "transferOwnership",
      "outputs": [],
      "stateMutability": "nonpayable",
      "type": "function"
    }
  ],
  "bytecode": "0x61012060405260746080818152906200199460a039600890620000239082620001d2565b503480156200003157600080fd5b506040518060400160405280600981526020016813565213d31053919560ba1b815250604051806040016040528060078152602001661213d31053919560ca1b8152508160009081620000859190620001d2565b506001620000948282620001d2565b505050620000b1620000ab620000ce60201b60201c565b620000d2565b620000c860076200012460201b620009231760201c565b6200029e565b3390565b600680546001600160a01b038381166001600160a01b0319831681179093556040519116919082907f8be0079c531659141344cd1fd0a4f28419497f9722a3daafe3b4186f6b6457e090600090a35050565b80546001019055565b634e487b7160e01b600052604160045260246000fd5b600181811c908216806200015857607f821691505b6020821081036200017957634e487b7160e01b600052602260045260246000fd5b50919050565b601f821115620001cd57600081815260208120601f850160051c81016020861015620001a85750805b601f850160051c820191505b81811015620001c957828155600101620001b4565b5050505b505050565b81516001600160401b03811115620001ee57620001ee6200012d565b6200020681620001ff845462000143565b846200017f565b602080601f8311600181146200023e5760008415620002255750858301515b600019600386901b1c1916600185901b178555620001c9565b600085815260208120601f198616915b828110156200026f578886015182559484019460019091019084016200024e565b50858210156200028e5787850151600019600388901b60f8161c191681555b5050505050600190811b01905550565b6116e680620002ae6000396000f3fe608060405234801561001057600080fd5b506004361061012c5760003560e01c8063715018a6116100ad578063c87b56dd11610071578063c87b56dd1461026a578063e6d252451461027d578063e985e9c514610290578063f179b66d146102a3578063f2fde38b146102c357600080fd5b8063715018a6146102235780638da5cb5b1461022b57806395d89b411461023c578063a22cb46514610244578063b88d4fde1461025757600080fd5b806342842e0e116100f457806342842e0e146101c157806355f804b3146101d45780636352211e146101e75780636871ee40146101fa57806370a082311461020257600080fd5b806301ffc9a71461013157806306fdde0314610159578063081812fc1461016e578063095ea7b31461019957806323b872dd146101ae575b600080fd5b61014461013f3660046110fb565b6102d6565b60405190151581526020015b60405180910390f35b610161610328565b6040516101509190611165565b61018161017c366004611178565b6103ba565b6040516001600160a01b039091168152602001610150565b6101ac6101a73660046111ad565b6103e1565b005b6101ac6101bc3660046111d7565b6104fb565b6101ac6101cf3660046111d7565b61052c565b6101ac6101e236600461129f565b610547565b6101816101f5366004611178565b61055f565b6101ac6105bf565b6102156102103660046112e8565b61065a565b604051908152602001610150565b6101ac6106e0565b6006546001600160a01b0316610181565b6101616106f4565b6101ac610252366004611303565b610703565b6101ac61026536600461133f565b61070e565b610161610278366004611178565b610746565b6101ac61028b3660046112e8565b610857565b61014461029e3660046113bb565b61087c565b6102156102b13660046112e8565b60096020526000908152604090205481565b6101ac6102d13660046112e8565b6108aa565b60006001600160e01b031982166380ac58cd60e01b148061030757506001600160e01b03198216635b5e139f60e01b145b8061032257506301ffc9a760e01b6001600160e01b03198316145b92915050565b606060008054610337906113ee565b80601f0160208091040260200160405190810160405280929190818152602001828054610363906113ee565b80156103b05780601f10610385576101008083540402835291602001916103b0565b820191906000526020600020905b81548152906001019060200180831161039357829003601f168201915b5050505050905090565b60006103c58261092c565b506000908152600460205260409020546001600160a01b031690565b60006103ec8261055f565b9050806001600160a01b0316836001600160a01b03160361045e5760405162461bcd60e51b815260206004820152602160248201527f4552433732313a20617070726f76616c20746f2063757272656e74206f776e656044820152603960f91b60648201526084015b60405180910390fd5b336001600160a01b038216148061047a575061047a813361087c565b6104ec5760405162461bcd60e51b815260206004820152603d60248201527f4552433732313a20617070726f76652063616c6c6572206973206e6f7420746f60448201527f6b656e206f776e6572206f7220617070726f76656420666f7220616c6c0000006064820152608401610455565b6104f6838361098b565b505050565b61050533826109f9565b6105215760405162461bcd60e51b815260040161045590611428565b6104f6838383610a58565b6104f68383836040518060200160405280600081525061070e565b61054f610bc9565b600861055b82826114c3565b5050565b6000818152600260205260408120546001600160a01b0316806103225760405162461bcd60e51b8152602060048201526018602482015277115490cdcc8c4e881a5b9d985b1a59081d1bdad95b88125160421b6044820152606401610455565b3360009081526009602052604090205442116106165760405162461bcd60e51b81526020600482015260166024820152756e65656420746f2077616974206d6f72652074696d6560501b6044820152606401610455565b600061062160075490565b9050610631600780546001019055565b61063b3382610c23565b610647426101a4611599565b3360009081526009602052604090205550565b60006001600160a01b0382166106c45760405162461bcd60e51b815260206004820152602960248201527f4552433732313a2061646472657373207a65726f206973206e6f7420612076616044820152683634b21037bbb732b960b91b6064820152608401610455565b506001600160a01b031660009081526003602052604090205490565b6106e8610bc9565b6106f26000610c3d565b565b606060018054610337906113ee565b61055b338383610c8f565b61071833836109f9565b6107345760405162461bcd60e51b815260040161045590611428565b61074084848484610d5d565b50505050565b6000818152600260205260409020546060906001600160a01b03166107c55760405162461bcd60e51b815260206004820152602f60248201527f4552433732314d657461646174613a2055524920717565727920666f72206e6f60448201526e3732bc34b9ba32b73a103a37b5b2b760891b6064820152608401610455565b600880546107d2906113ee565b80601f01602080910402602001604051908101604052809291908181526020018280546107fe906113ee565b801561084b5780601f106108205761010080835404028352916020019161084b565b820191906000526020600020905b81548152906001019060200180831161082e57829003601f168201915b50505050509050919050565b600061086260075490565b9050610872600780546001019055565b61055b8282610c23565b6001600160a01b03918216600090815260056020908152604080832093909416825291909152205460ff1690565b6108b2610bc9565b6001600160a01b0381166109175760405162461bcd60e51b815260206004820152602660248201527f4f776e61626c653a206e6577206f776e657220697320746865207a65726f206160448201526564647265737360d01b6064820152608401610455565b61092081610c3d565b50565b80546001019055565b6000818152600260205260409020546001600160a01b03166109205760405162461bcd60e51b8152602060048201526018602482015277115490cdcc8c4e881a5b9d985b1a59081d1bdad95b88125160421b6044820152606401610455565b600081815260046020526040902080546001600160a01b0319166001600160a01b03841690811790915581906109c08261055f565b6001600160a01b03167f8c5be1e5ebec7d5bd14f71427d1e84f3dd0314c0f7b2291e5b200ac8c7c3b92560405160405180910390a45050565b600080610a058361055f565b9050806001600160a01b0316846001600160a01b03161480610a2c5750610a2c818561087c565b80610a505750836001600160a01b0316610a45846103ba565b6001600160a01b0316145b949350505050565b826001600160a01b0316610a6b8261055f565b6001600160a01b031614610a915760405162461bcd60e51b8152600401610455906115ac565b6001600160a01b038216610af35760405162461bcd60e51b8152602060048201526024808201527f4552433732313a207472616e7366657220746f20746865207a65726f206164646044820152637265737360e01b6064820152608401610455565b610b008383836001610d90565b826001600160a01b0316610b138261055f565b6001600160a01b031614610b395760405162461bcd60e51b8152600401610455906115ac565b600081815260046020908152604080832080546001600160a01b03199081169091556001600160a01b0387811680865260038552838620805460001901905590871680865283862080546001019055868652600290945282852080549092168417909155905184937fddf252ad1be2c89b69c2b068fc378daa952ba7f163c4a11628f55a4df523b3ef91a4505050565b6006546001600160a01b031633146106f25760405162461bcd60e51b815260206004820181905260248201527f4f776e61626c653a2063616c6c6572206973206e6f7420746865206f776e65726044820152606401610455565b61055b828260405180602001604052806000815250610e18565b600680546001600160a01b038381166001600160a01b0319831681179093556040519116919082907f8be0079c531659141344cd1fd0a4f28419497f9722a3daafe3b4186f6b6457e090600090a35050565b816001600160a01b0316836001600160a01b031603610cf05760405162461bcd60e51b815260206004820152601960248201527f4552433732313a20617070726f766520746f2063616c6c6572000000000000006044820152606401610455565b6001600160a01b03838116600081815260056020908152604080832094871680845294825291829020805460ff191686151590811790915591519182527f17307eab39ab6107e8899845ad3d59bd9653f200f220920489ca2b5937696c31910160405180910390a3505050565b610d68848484610a58565b610d7484848484610e4b565b6107405760405162461bcd60e51b8152600401610455906115f1565b6001811115610740576001600160a01b03841615610dd6576001600160a01b03841660009081526003602052604081208054839290610dd0908490611643565b90915550505b6001600160a01b03831615610740576001600160a01b03831660009081526003602052604081208054839290610e0d908490611599565b909155505050505050565b610e228383610f4c565b610e2f6000848484610e4b565b6104f65760405162461bcd60e51b8152600401610455906115f1565b60006001600160a01b0384163b15610f4157604051630a85bd0160e11b81526001600160a01b0385169063150b7a0290610e8f903390899088908890600401611656565b6020604051808303816000875af1925050508015610eca575060408051601f3d908101601f19168201909252610ec791810190611693565b60015b610f27573d808015610ef8576040519150601f19603f3d011682016040523d82523d6000602084013e610efd565b606091505b508051600003610f1f5760405162461bcd60e51b8152600401610455906115f1565b805181602001fd5b6001600160e01b031916630a85bd0160e11b149050610a50565b506001949350505050565b6001600160a01b038216610fa25760405162461bcd60e51b815260206004820181905260248201527f4552433732313a206d696e7420746f20746865207a65726f20616464726573736044820152606401610455565b6000818152600260205260409020546001600160a01b0316156110075760405162461bcd60e51b815260206004820152601c60248201527f4552433732313a20746f6b656e20616c7265616479206d696e746564000000006044820152606401610455565b611015600083836001610d90565b6000818152600260205260409020546001600160a01b03161561107a5760405162461bcd60e51b815260206004820152601c60248201527f4552433732313a20746f6b656e20616c7265616479206d696e746564000000006044820152606401610455565b6001600160a01b038216600081815260036020908152604080832080546001019055848352600290915280822080546001600160a01b0319168417905551839291907fddf252ad1be2c89b69c2b068fc378daa952ba7f163c4a11628f55a4df523b3ef908290a45050565b6001600160e01b03198116811461092057600080fd5b60006020828403121561110d57600080fd5b8135611118816110e5565b9392505050565b6000815180845260005b8181101561114557602081850181015186830182015201611129565b506000602082860101526020601f19601f83011685010191505092915050565b602081526000611118602083018461111f565b60006020828403121561118a57600080fd5b5035919050565b80356001600160a01b03811681146111a857600080fd5b919050565b600080604083850312156111c057600080fd5b6111c983611191565b946020939093013593505050565b6000806000606084860312156111ec57600080fd5b6111f584611191565b925061120360208501611191565b9150604084013590509250925092565b634e487b7160e01b600052604160045260246000fd5b600067ffffffffffffffff8084111561124457611244611213565b604051601f8501601f19908116603f0116810190828211818310171561126c5761126c611213565b8160405280935085815286868601111561128557600080fd5b858560208301376000602087830101525050509392505050565b6000602082840312156112b157600080fd5b813567ffffffffffffffff8111156112c857600080fd5b8201601f810184136112d957600080fd5b610a5084823560208401611229565b6000602082840312156112fa57600080fd5b61111882611191565b6000806040838503121561131657600080fd5b61131f83611191565b91506020830135801515811461133457600080fd5b809150509250929050565b6000806000806080858703121561135557600080fd5b61135e85611191565b935061136c60208601611191565b925060408501359150606085013567ffffffffffffffff81111561138f57600080fd5b8501601f810187136113a057600080fd5b6113af87823560208401611229565b91505092959194509250565b600080604083850312156113ce57600080fd5b6113d783611191565b91506113e560208401611191565b90509250929050565b600181811c9082168061140257607f821691505b60208210810361142257634e487b7160e01b600052602260045260246000fd5b50919050565b6020808252602d908201527f4552433732313a2063616c6c6572206973206e6f7420746f6b656e206f776e6560408201526c1c881bdc88185c1c1c9bdd9959609a1b606082015260800190565b601f8211156104f657600081815260208120601f850160051c8101602086101561149c5750805b601f850160051c820191505b818110156114bb578281556001016114a8565b505050505050565b815167ffffffffffffffff8111156114dd576114dd611213565b6114f1816114eb84546113ee565b84611475565b602080601f831160018114611526576000841561150e5750858301515b600019600386901b1c1916600185901b1785556114bb565b600085815260208120601f198616915b8281101561155557888601518255948401946001909101908401611536565b50858210156115735787850151600019600388901b60f8161c191681555b5050505050600190811b01905550565b634e487b7160e01b600052601160045260246000fd5b8082018082111561032257610322611583565b60208082526025908201527f4552433732313a207472616e736665722066726f6d20696e636f72726563742060408201526437bbb732b960d91b606082015260800190565b60208082526032908201527f4552433732313a207472616e7366657220746f206e6f6e20455243373231526560408201527131b2b4bb32b91034b6b83632b6b2b73a32b960711b606082015260800190565b8181038181111561032257610322611583565b6001600160a01b03858116825284166020820152604081018390526080606082018190526000906116899083018461111f565b9695505050505050565b6000602082840312156116a557600080fd5b8151611118816110e556fea2646970667358221220d649f5f3be3dc9ad4d1fa9633d1f301977e74059cd35a272d3c72f1fb41e3fd764736f6c6343000811003368747470733a2f2f366e73746365636b62647a6c7a657471693272346c6a62627967767a3533743678376271763674357a3275726e62733364786b712e617277656176652e6e65742f3832557845456f49387279536345616a7861516877617565376e365f7777723666633670466f5a62486455",
  "linkReferences": {},
  "deployedLinkReferences": {}
}