{
  "_format": "hh-sol-artifact-1",
  "contractName": "NFTContract",
  "sourceName": "contracts/NFT.sol",
  "abi": [
    {
      "inputs": [
        {
          "internalType": "uint96",
          "name": "_royaltyFeesInBips",
          "type": "uint96"
        },
        {
          "internalType": "string",
          "name": "_URI",
          "type": "string"
        },
        {
          "internalType": "address",
          "name": "_royalty",
          "type": "address"
        },
        {
          "internalType": "contract ISuperToken",
          "name": "_spreaderToken",
          "type": "address"
        }
      ],
      "stateMutability": "nonpayable",
      "type": "constructor"
    },
    {
      "inputs": [],
      "name": "ContractPaused",
      "type": "error"
    },
    {
      "inputs": [],
      "name": "MaxSupplyExceeded",
      "type": "error"
    },
    {
      "anonymous": false,
      "inputs": [
        {
          "indexed": true,
          "internalType": "address",
          "name": "owner",
          "type": "address"
        },
        {
          "indexed": true,
          "internalType": "address",
          "name": "approved",
          "type": "address"
        },
        {
          "indexed": true,
          "internalType": "uint256",
          "name": "tokenId",
          "type": "uint256"
        }
      ],
      "name": "Approval",
      "type": "event"
    },
    {
      "anonymous": false,
      "inputs": [
        {
          "indexed": true,
          "internalType": "address",
          "name": "owner",
          "type": "address"
        },
        {
          "indexed": true,
          "internalType": "address",
          "name": "operator",
          "type": "address"
        },
        {
          "indexed": false,
          "internalType": "bool",
          "name": "approved",
          "type": "bool"
        }
      ],
      "name": "ApprovalForAll",
      "type": "event"
    },
    {
      "anonymous": false,
      "inputs": [
        {
          "indexed": true,
          "internalType": "address",
          "name": "previousOwner",
          "type": "address"
        },
        {
          "indexed": true,
          "internalType": "address",
          "name": "newOwner",
          "type": "address"
        }
      ],
      "name": "OwnershipTransferred",
      "type": "event"
    },
    {
      "anonymous": false,
      "inputs": [
        {
          "indexed": true,
          "internalType": "address",
          "name": "from",
          "type": "address"
        },
        {
          "indexed": true,
          "internalType": "address",
          "name": "to",
          "type": "address"
        },
        {
          "indexed": true,
          "internalType": "uint256",
          "name": "tokenId",
          "type": "uint256"
        }
      ],
      "name": "Transfer",
      "type": "event"
    },
    {
      "inputs": [],
      "name": "INDEX_ID",
      "outputs": [
        {
          "internalType": "uint32",
          "name": "",
          "type": "uint32"
        }
      ],
      "stateMutability": "view",
      "type": "function"
    },
    {
      "inputs": [],
      "name": "MAX_SUPPLY",
      "outputs": [
        {
          "internalType": "uint256",
          "name": "",
          "type": "uint256"
        }
      ],
      "stateMutability": "view",
      "type": "function"
    },
    {
      "inputs": [
        {
          "internalType": "address",
          "name": "to",
          "type": "address"
        }
      ],
      "name": "adminMint",
      "outputs": [],
      "stateMutability": "nonpayable",
      "type": "function"
    },
    {
      "inputs": [
        {
          "internalType": "address",
          "name": "to",
          "type": "address"
        },
        {
          "internalType": "uint256",
          "name": "tokenId",
          "type": "uint256"
        }
      ],
      "name": "approve",
      "outputs": [],
      "stateMutability": "nonpayable",
      "type": "function"
    },
    {
      "inputs": [
        {
          "internalType": "address",
          "name": "owner",
          "type": "address"
        }
      ],
      "name": "balanceOf",
      "outputs": [
        {
          "internalType": "uint256",
          "name": "",
          "type": "uint256"
        }
      ],
      "stateMutability": "view",
      "type": "function"
    },
    {
      "inputs": [
        {
          "internalType": "uint256",
          "name": "tokenId",
          "type": "uint256"
        }
      ],
      "name": "burn",
      "outputs": [],
      "stateMutability": "nonpayable",
      "type": "function"
    },
    {
      "inputs": [],
      "name": "contractCaller",
      "outputs": [
        {
          "internalType": "address",
          "name": "",
          "type": "address"
        }
      ],
      "stateMutability": "view",
      "type": "function"
    },
    {
      "inputs": [
        {
          "internalType": "address",
          "name": "subscriber",
          "type": "address"
        }
      ],
      "name": "deleteShares",
      "outputs": [],
      "stateMutability": "nonpayable",
      "type": "function"
    },
    {
      "inputs": [],
      "name": "distribute",
      "outputs": [],
      "stateMutability": "nonpayable",
      "type": "function"
    },
    {
      "inputs": [
        {
          "internalType": "address",
          "name": "subscriber",
          "type": "address"
        }
      ],
      "name": "gainShare",
      "outputs": [],
      "stateMutability": "nonpayable",
      "type": "function"
    },
    {
      "inputs": [
        {
          "internalType": "uint256",
          "name": "tokenId",
          "type": "uint256"
        }
      ],
      "name": "getApproved",
      "outputs": [
        {
          "internalType": "address",
          "name": "",
          "type": "address"
        }
      ],
      "stateMutability": "view",
      "type": "function"
    },
    {
      "inputs": [
        {
          "internalType": "address",
          "name": "owner",
          "type": "address"
        },
        {
          "internalType": "address",
          "name": "operator",
          "type": "address"
        }
      ],
      "name": "isApprovedForAll",
      "outputs": [
        {
          "internalType": "bool",
          "name": "",
          "type": "bool"
        }
      ],
      "stateMutability": "view",
      "type": "function"
    },
    {
      "inputs": [
        {
          "internalType": "address",
          "name": "subscriber",
          "type": "address"
        }
      ],
      "name": "loseShare",
      "outputs": [],
      "stateMutability": "nonpayable",
      "type": "function"
    },
    {
      "inputs": [],
      "name": "mint",
      "outputs": [],
      "stateMutability": "nonpayable",
      "type": "function"
    },
    {
      "inputs": [],
      "name": "name",
      "outputs": [
        {
          "internalType": "string",
          "name": "",
          "type": "string"
        }
      ],
      "stateMutability": "view",
      "type": "function"
    },
    {
      "inputs": [],
      "name": "owner",
      "outputs": [
        {
          "internalType": "address",
          "name": "",
          "type": "address"
        }
      ],
      "stateMutability": "view",
      "type": "function"
    },
    {
      "inputs": [
        {
          "internalType": "uint256",
          "name": "tokenId",
          "type": "uint256"
        }
      ],
      "name": "ownerOf",
      "outputs": [
        {
          "internalType": "address",
          "name": "",
          "type": "address"
        }
      ],
      "stateMutability": "view",
      "type": "function"
    },
    {
      "inputs": [],
      "name": "pause",
      "outputs": [
        {
          "internalType": "bool",
          "name": "",
          "type": "bool"
        }
      ],
      "stateMutability": "view",
      "type": "function"
    },
    {
      "inputs": [],
      "name": "renounceOwnership",
      "outputs": [],
      "stateMutability": "nonpayable",
      "type": "function"
    },
    {
      "inputs": [],
      "name": "returnTheBaseURI",
      "outputs": [
        {
          "internalType": "string",
          "name": "",
          "type": "string"
        }
      ],
      "stateMutability": "view",
      "type": "function"
    },
    {
      "inputs": [
        {
          "internalType": "uint256",
          "name": "_tokenId",
          "type": "uint256"
        },
        {
          "internalType": "uint256",
          "name": "_salePrice",
          "type": "uint256"
        }
      ],
      "name": "royaltyInfo",
      "outputs": [
        {
          "internalType": "address",
          "name": "",
          "type": "address"
        },
        {
          "internalType": "uint256",
          "name": "",
          "type": "uint256"
        }
      ],
      "stateMutability": "view",
      "type": "function"
    },
    {
      "inputs": [
        {
          "internalType": "address",
          "name": "from",
          "type": "address"
        },
        {
          "internalType": "address",
          "name": "to",
          "type": "address"
        },
        {
          "internalType": "uint256",
          "name": "tokenId",
          "type": "uint256"
        }
      ],
      "name": "safeTransferFrom",
      "outputs": [],
      "stateMutability": "nonpayable",
      "type": "function"
    },
    {
      "inputs": [
        {
          "internalType": "address",
          "name": "from",
          "type": "address"
        },
        {
          "internalType": "address",
          "name": "to",
          "type": "address"
        },
        {
          "internalType": "uint256",
          "name": "tokenId",
          "type": "uint256"
        },
        {
          "internalType": "bytes",
          "name": "data",
          "type": "bytes"
        }
      ],
      "name": "safeTransferFrom",
      "outputs": [],
      "stateMutability": "nonpayable",
      "type": "function"
    },
    {
      "inputs": [
        {
          "internalType": "address",
          "name": "_contract",
          "type": "address"
        }
      ],
      "name": "setAllowedCaller",
      "outputs": [],
      "stateMutability": "nonpayable",
      "type": "function"
    },
    {
      "inputs": [
        {
          "internalType": "address",
          "name": "operator",
          "type": "address"
        },
        {
          "internalType": "bool",
          "name": "approved",
          "type": "bool"
        }
      ],
      "name": "setApprovalForAll",
      "outputs": [],
      "stateMutability": "nonpayable",
      "type": "function"
    },
    {
      "inputs": [
        {
          "internalType": "address",
          "name": "_receiver",
          "type": "address"
        },
        {
          "internalType": "uint96",
          "name": "_royaltyFeesInBips",
          "type": "uint96"
        }
      ],
      "name": "setRoyaltyInfo",
      "outputs": [],
      "stateMutability": "nonpayable",
      "type": "function"
    },
    {
      "inputs": [
        {
          "internalType": "string",
          "name": "_baseTokenUri",
          "type": "string"
        }
      ],
      "name": "setTokenUri",
      "outputs": [],
      "stateMutability": "nonpayable",
      "type": "function"
    },
    {
      "inputs": [],
      "name": "spreaderToken",
      "outputs": [
        {
          "internalType": "contract ISuperToken",
          "name": "",
          "type": "address"
        }
      ],
      "stateMutability": "view",
      "type": "function"
    },
    {
      "inputs": [
        {
          "internalType": "bytes4",
          "name": "interfaceId",
          "type": "bytes4"
        }
      ],
      "name": "supportsInterface",
      "outputs": [
        {
          "internalType": "bool",
          "name": "",
          "type": "bool"
        }
      ],
      "stateMutability": "view",
      "type": "function"
    },
    {
      "inputs": [],
      "name": "symbol",
      "outputs": [
        {
          "internalType": "string",
          "name": "",
          "type": "string"
        }
      ],
      "stateMutability": "view",
      "type": "function"
    },
    {
      "inputs": [],
      "name": "togglePause",
      "outputs": [],
      "stateMutability": "nonpayable",
      "type": "function"
    },
    {
      "inputs": [
        {
          "internalType": "uint256",
          "name": "tokenId",
          "type": "uint256"
        }
      ],
      "name": "tokenURI",
      "outputs": [
        {
          "internalType": "string",
          "name": "",
          "type": "string"
        }
      ],
      "stateMutability": "view",
      "type": "function"
    },
    {
      "inputs": [
        {
          "internalType": "address",
          "name": "",
          "type": "address"
        }
      ],
      "name": "totalMints",
      "outputs": [
        {
          "internalType": "uint256",
          "name": "",
          "type": "uint256"
        }
      ],
      "stateMutability": "view",
      "type": "function"
    },
    {
      "inputs": [],
      "name": "totalSupply",
      "outputs": [
        {
          "internalType": "uint256",
          "name": "",
          "type": "uint256"
        }
      ],
      "stateMutability": "view",
      "type": "function"
    },
    {
      "inputs": [
        {
          "internalType": "address",
          "name": "from",
          "type": "address"
        },
        {
          "internalType": "address",
          "name": "to",
          "type": "address"
        },
        {
          "internalType": "uint256",
          "name": "tokenId",
          "type": "uint256"
        }
      ],
      "name": "transferFrom",
      "outputs": [],
      "stateMutability": "nonpayable",
      "type": "function"
    },
    {
      "inputs": [
        {
          "internalType": "address",
          "name": "newOwner",
          "type": "address"
        }
      ],
      "name": "transferOwnership",
      "outputs": [],
      "stateMutability": "nonpayable",
      "type": "function"
    },
    {
      "inputs": [],
      "name": "withdraw",
      "outputs": [],
      "stateMutability": "nonpayable",
      "type": "function"
    }
  ],
  "bytecode": "0x6080604052600d80546001600160a01b03191690553480156200002157600080fd5b506040516200349b3803806200349b8339810160408190526200004491620006c4565b6040518060400160405280600881526020016710da185d0813919560c21b815250604051806040016040528060048152602001631253919560e21b8152508160009081620000939190620007f3565b506001620000a28282620007f3565b505050620000bf620000b96200013360201b60201c565b62000137565b620000cb828562000189565b600c620000d98482620007f3565b50620000f16009620001a360201b62000f3e1760201c565b600a80546001600160a01b0319166001600160a01b03831690811790915562000128906000620001ac602090811b62000f4717901c565b505050505062000a03565b3390565b600680546001600160a01b038381166001600160a01b0319831681179093556040519116919082907f8be0079c531659141344cd1fd0a4f28419497f9722a3daafe3b4186f6b6457e090600090a35050565b62000193620002dd565b6200019f82826200033f565b5050565b80546001019055565b60008080620001bb8562000440565b91509150816001600160a01b03166339255d5b82836001600160a01b031663d787840a898960006001600160401b03811115620001fc57620001fc620005f3565b6040519080825280601f01601f19166020018201604052801562000227576020820181803683370190505b506040516024016200023c93929190620008ed565b60408051808303601f1901815291815260208201805160e094851b6001600160e01b03909116179052519185901b6001600160e01b0319168252620002879392509060040162000928565b6000604051808303816000875af1158015620002a7573d6000803e3d6000fd5b505050506040513d6000823e601f3d908101601f19168201604052620002d1919081019062000971565b50600195945050505050565b6006546001600160a01b031633146200033d5760405162461bcd60e51b815260206004820181905260248201527f4f776e61626c653a2063616c6c6572206973206e6f7420746865206f776e657260448201526064015b60405180910390fd5b565b6127106001600160601b0382161115620003af5760405162461bcd60e51b815260206004820152602a60248201527f455243323938313a20726f79616c7479206665652077696c6c206578636565646044820152692073616c65507269636560b01b606482015260840162000334565b6001600160a01b038216620004075760405162461bcd60e51b815260206004820152601960248201527f455243323938313a20696e76616c696420726563656976657200000000000000604482015260640162000334565b604080518082019091526001600160a01b039092168083526001600160601b039091166020909201829052600160a01b90910217600755565b7f65599bf746e17a00ea62e3610586992d88101b78eec3cf380706621fb97ea837546000805160206200347b833981519152546001600160a01b038116620005bc576001600160a01b038216620004f957826001600160a01b03166320bc44256040518163ffffffff1660e01b8152600401602060405180830381865afa158015620004d0573d6000803e3d6000fd5b505050506040513d601f19601f82011682018060405250810190620004f69190620009c6565b91505b604051635b69006f60e11b81527f8aedc3b5d4bf031e11a7e2940f7251c005698405d58e02e1c247fed3b1b3a67460048201526001600160a01b0383169063b6d200de90602401602060405180830381865afa1580156200055e573d6000803e3d6000fd5b505050506040513d601f19601f82011682018060405250810190620005849190620009c6565b9050817f65599bf746e17a00ea62e3610586992d88101b78eec3cf380706621fb97ea83755806000805160206200347b833981519152555b6001600160a01b038216620005d557620005d5620009ed565b6001600160a01b038116620005ee57620005ee620009ed565b915091565b634e487b7160e01b600052604160045260246000fd5b60005b83811015620006265781810151838201526020016200060c565b50506000910152565b60006001600160401b03808411156200064c576200064c620005f3565b604051601f8501601f19908116603f01168101908282118183101715620006775762000677620005f3565b816040528093508581528686860111156200069157600080fd5b620006a186602083018762000609565b5050509392505050565b6001600160a01b0381168114620006c157600080fd5b50565b60008060008060808587031215620006db57600080fd5b84516001600160601b0381168114620006f357600080fd5b60208601519094506001600160401b038111156200071057600080fd5b8501601f810187136200072257600080fd5b62000733878251602084016200062f565b93505060408501516200074681620006ab565b60608601519092506200075981620006ab565b939692955090935050565b600181811c908216806200077957607f821691505b6020821081036200079a57634e487b7160e01b600052602260045260246000fd5b50919050565b601f821115620007ee57600081815260208120601f850160051c81016020861015620007c95750805b601f850160051c820191505b81811015620007ea57828155600101620007d5565b5050505b505050565b81516001600160401b038111156200080f576200080f620005f3565b620008278162000820845462000764565b84620007a0565b602080601f8311600181146200085f5760008415620008465750858301515b600019600386901b1c1916600185901b178555620007ea565b600085815260208120601f198616915b8281101562000890578886015182559484019460019091019084016200086f565b5085821015620008af5787850151600019600388901b60f8161c191681555b5050505050600190811b01905550565b60008151808452620008d981602086016020860162000609565b601f01601f19169290920160200192915050565b6001600160a01b038416815263ffffffff831660208201526060604082018190526000906200091f90830184620008bf565b95945050505050565b6001600160a01b03831681526060602082018190526000906200094e90830184620008bf565b8281036040938401526002815261060f60f31b6020820152919091019392505050565b6000602082840312156200098457600080fd5b81516001600160401b038111156200099b57600080fd5b8201601f81018413620009ad57600080fd5b620009be848251602084016200062f565b949350505050565b600060208284031215620009d957600080fd5b8151620009e681620006ab565b9392505050565b634e487b7160e01b600052600160045260246000fd5b612a688062000a136000396000f3fe608060405234801561001057600080fd5b50600436106102275760003560e01c806370a0823111610130578063a3f7078a116100b8578063d58a88281161007c578063d58a8828146104c6578063e4fc6b6d146104d9578063e985e9c5146104e1578063ed28e63e146104f4578063f2fde38b1461050757600080fd5b8063a3f7078a14610460578063b16d643614610468578063b88d4fde14610498578063c4ae3168146104ab578063c87b56dd146104b357600080fd5b80638c7f0959116100ff5780638c7f0959146104045780638da5cb5b1461042157806395d89b41146104325780639769dc0e1461043a578063a22cb4651461044d57600080fd5b806370a08231146103c2578063715018a6146103d5578063844a5f5f146103dd5780638456cb59146103f057600080fd5b80632268cacb116101b35780633ccfd60b116101825780633ccfd60b1461036e57806342842e0e1461037657806342966c681461038957806354cf428a1461039c5780636352211e146103af57600080fd5b80632268cacb1461030e57806323b872dd146103215780632a55205a1461033457806332cb6b0c1461036657600080fd5b8063081812fc116101fa578063081812fc14610291578063095ea7b3146102bc5780631249c58b146102cf57806318160ddd146102d757806320863f73146102ee57600080fd5b806301ffc9a71461022c57806302fa7c47146102545780630675b7c61461026957806306fdde031461027c575b600080fd5b61023f61023a366004612101565b61051a565b60405190151581526020015b60405180910390f35b61026761026236600461213a565b61052b565b005b61026761027736600461222c565b610541565b61028461054d565b60405161024b91906122c5565b6102a461029f3660046122d8565b6105df565b6040516001600160a01b03909116815260200161024b565b6102676102ca3660046122f1565b610606565b610267610720565b6102e0600b5481565b60405190815260200161024b565b6102e06102fc36600461231d565b600e6020526000908152604090205481565b61026761031c36600461231d565b6107b8565b61026761032f36600461233a565b6107d1565b61034761034236600461237b565b610803565b604080516001600160a01b03909316835260208301919091520161024b565b6102e060fa81565b6102676108af565b61026761038436600461233a565b61090f565b6102676103973660046122d8565b610a03565b600d546102a4906001600160a01b031681565b6102a46103bd3660046122d8565b610a31565b6102e06103d036600461231d565b610a91565b610267610b17565b600a546102a4906001600160a01b031681565b600d5461023f90600160a01b900460ff1681565b61040c600081565b60405163ffffffff909116815260200161024b565b6006546001600160a01b03166102a4565b610284610b2b565b61026761044836600461231d565b610b3a565b61026761045b3660046123ab565b610bdb565b610284610be6565b61026761047636600461231d565b600d80546001600160a01b0319166001600160a01b0392909216919091179055565b6102676104a63660046123d9565b610bf5565b610267610c2d565b6102846104c13660046122d8565b610c56565b6102676104d436600461231d565b610d67565b610267610db7565b61023f6104ef366004612459565b610e5e565b61026761050236600461231d565b610e8c565b61026761051536600461231d565b610ec8565b60006105258261106d565b92915050565b610533611092565b61053d82826110ec565b5050565b600c61053d828261250f565b60606000805461055c90612487565b80601f016020809104026020016040519081016040528092919081815260200182805461058890612487565b80156105d55780601f106105aa576101008083540402835291602001916105d5565b820191906000526020600020905b8154815290600101906020018083116105b857829003601f168201915b5050505050905090565b60006105ea826111e9565b506000908152600460205260409020546001600160a01b031690565b600061061182610a31565b9050806001600160a01b0316836001600160a01b0316036106835760405162461bcd60e51b815260206004820152602160248201527f4552433732313a20617070726f76616c20746f2063757272656e74206f776e656044820152603960f91b60648201526084015b60405180910390fd5b336001600160a01b038216148061069f575061069f8133610e5e565b6107115760405162461bcd60e51b815260206004820152603d60248201527f4552433732313a20617070726f76652063616c6c6572206973206e6f7420746f60448201527f6b656e206f776e6572206f7220617070726f76656420666f7220616c6c000000606482015260840161067a565b61071b8383611248565b505050565b600d54600160a01b900460ff16151560010361074f5760405163ab35696f60e01b815260040160405180910390fd5b60fa600b541061077257604051638a164f6360e01b815260040160405180910390fd5b600061077d60095490565b905061078d600980546001019055565b61079733826112b6565b6107a033610e8c565b600b80549060006107b0836125e5565b919050555050565b600a5461053d906001600160a01b0316306000846112d0565b6107dc335b826113fe565b6107f85760405162461bcd60e51b815260040161067a906125fe565b61071b83838361145c565b60008281526008602090815260408083208151808301909252546001600160a01b038116808352600160a01b9091046001600160601b03169282019290925282916108785750604080518082019091526007546001600160a01b0381168252600160a01b90046001600160601b031660208201525b602081015160009061271090610897906001600160601b03168761264b565b6108a19190612662565b915196919550909350505050565b6108b7611092565b604051600090339047908381818185875af1925050503d80600081146108f9576040519150601f19603f3d011682016040523d82523d6000602084013e6108fe565b606091505b505090508061090c57600080fd5b50565b61091933826113fe565b61097f5760405162461bcd60e51b815260206004820152603160248201527f4552433732313a207472616e736665722063616c6c6572206973206e6f74206f6044820152701ddb995c881b9bdc88185c1c1c9bdd9959607a1b606482015260840161067a565b6001600160a01b0382166109e65760405162461bcd60e51b815260206004820152602860248201527f4552433732313a207472616e7366657220746f20636f6e7472616374206e6f7460448201526708185b1b1bddd95960c21b606482015260840161067a565b6109f183838361145c565b6109fa83610d67565b61071b82610e8c565b610a0c336107d6565b610a285760405162461bcd60e51b815260040161067a906125fe565b61090c816115c0565b6000818152600260205260408120546001600160a01b0316806105255760405162461bcd60e51b8152602060048201526018602482015277115490cdcc8c4e881a5b9d985b1a59081d1bdad95b88125160421b604482015260640161067a565b60006001600160a01b038216610afb5760405162461bcd60e51b815260206004820152602960248201527f4552433732313a2061646472657373207a65726f206973206e6f7420612076616044820152683634b21037bbb732b960b91b606482015260840161067a565b506001600160a01b031660009081526003602052604090205490565b610b1f611092565b610b296000611655565b565b60606001805461055c90612487565b610b42611092565b600d54600160a01b900460ff161515600103610b715760405163ab35696f60e01b815260040160405180910390fd5b60fa600b5410610b9457604051638a164f6360e01b815260040160405180910390fd5b6000610b9f60095490565b9050610baf600980546001019055565b610bb982826112b6565b610bc282610e8c565b600b8054906000610bd2836125e5565b91905055505050565b61053d3383836116a7565b6060600c805461055c90612487565b610bff33836113fe565b610c1b5760405162461bcd60e51b815260040161067a906125fe565b610c2784848484611775565b50505050565b610c35611092565b600d805460ff60a01b198116600160a01b9182900460ff1615909102179055565b6000818152600260205260409020546060906001600160a01b0316610cd55760405162461bcd60e51b815260206004820152602f60248201527f4552433732314d657461646174613a2055524920717565727920666f72206e6f60448201526e3732bc34b9ba32b73a103a37b5b2b760891b606482015260840161067a565b600c8054610ce290612487565b80601f0160208091040260200160405190810160405280929190818152602001828054610d0e90612487565b8015610d5b5780601f10610d3057610100808354040283529160200191610d5b565b820191906000526020600020905b815481529060010190602001808311610d3e57829003601f168201915b50505050509050919050565b600a54600090610d82906001600160a01b03163083856117a8565b506001600160801b03169250505061071b600083600184610da39190612684565b600a546001600160a01b0316929190611857565b600a546040516370a0823160e01b81523060048201526000916001600160a01b0316906370a0823190602401602060405180830381865afa158015610e00573d6000803e3d6000fd5b505050506040513d601f19601f82011682018060405250810190610e249190612697565b600a54909150600090610e42906001600160a01b03163083856118e5565b50600a5490915061071b906001600160a01b031660008361198a565b6001600160a01b03918216600090815260056020908152604080832093909416825291909152205460ff1690565b600a54600090610ea7906001600160a01b03163083856117a8565b506001600160801b03169250505061071b600083836001610da391906126b0565b610ed0611092565b6001600160a01b038116610f355760405162461bcd60e51b815260206004820152602660248201527f4f776e61626c653a206e6577206f776e657220697320746865207a65726f206160448201526564647265737360d01b606482015260840161067a565b61090c81611655565b80546001019055565b6000806000610f5585611ab3565b91509150816001600160a01b03166339255d5b82836001600160a01b031663d787840a8989600067ffffffffffffffff811115610f9457610f9461217f565b6040519080825280601f01601f191660200182016040528015610fbe576020820181803683370190505b50604051602401610fd1939291906126c3565b60408051808303601f1901815291815260208201805160e094851b6001600160e01b03909116179052519185901b6001600160e01b031916825261101a939250906004016126fc565b6000604051808303816000875af1158015611039573d6000803e3d6000fd5b505050506040513d6000823e601f3d908101601f191682016040526110619190810190612743565b50600195945050505050565b60006001600160e01b0319821663152a902d60e11b1480610525575061052582611c7a565b6006546001600160a01b03163314610b295760405162461bcd60e51b815260206004820181905260248201527f4f776e61626c653a2063616c6c6572206973206e6f7420746865206f776e6572604482015260640161067a565b6127106001600160601b038216111561115a5760405162461bcd60e51b815260206004820152602a60248201527f455243323938313a20726f79616c7479206665652077696c6c206578636565646044820152692073616c65507269636560b01b606482015260840161067a565b6001600160a01b0382166111b05760405162461bcd60e51b815260206004820152601960248201527f455243323938313a20696e76616c696420726563656976657200000000000000604482015260640161067a565b604080518082019091526001600160a01b039092168083526001600160601b039091166020909201829052600160a01b90910217600755565b6000818152600260205260409020546001600160a01b031661090c5760405162461bcd60e51b8152602060048201526018602482015277115490cdcc8c4e881a5b9d985b1a59081d1bdad95b88125160421b604482015260640161067a565b600081815260046020526040902080546001600160a01b0319166001600160a01b038416908117909155819061127d82610a31565b6001600160a01b03167f8c5be1e5ebec7d5bd14f71427d1e84f3dd0314c0f7b2291e5b200ac8c7c3b92560405160405180910390a45050565b61053d828260405180602001604052806000815250611cca565b60008060006112de87611ab3565b91509150816001600160a01b03166339255d5b82836001600160a01b0316632e5e74c68b8b8b8b600067ffffffffffffffff81111561131f5761131f61217f565b6040519080825280601f01601f191660200182016040528015611349576020820181803683370190505b5060405160240161135e9594939291906127b1565b60408051808303601f1901815291815260208201805160e094851b6001600160e01b03909116179052519185901b6001600160e01b03191682526113a7939250906004016126fc565b6000604051808303816000875af11580156113c6573d6000803e3d6000fd5b505050506040513d6000823e601f3d908101601f191682016040526113ee9190810190612743565b506001925050505b949350505050565b60008061140a83610a31565b9050806001600160a01b0316846001600160a01b0316148061143157506114318185610e5e565b806113f65750836001600160a01b031661144a846105df565b6001600160a01b031614949350505050565b826001600160a01b031661146f82610a31565b6001600160a01b0316146114955760405162461bcd60e51b815260040161067a906127fc565b6001600160a01b0382166114f75760405162461bcd60e51b8152602060048201526024808201527f4552433732313a207472616e7366657220746f20746865207a65726f206164646044820152637265737360e01b606482015260840161067a565b826001600160a01b031661150a82610a31565b6001600160a01b0316146115305760405162461bcd60e51b815260040161067a906127fc565b600081815260046020908152604080832080546001600160a01b03199081169091556001600160a01b0387811680865260038552838620805460001901905590871680865283862080546001019055868652600290945282852080549092168417909155905184937fddf252ad1be2c89b69c2b068fc378daa952ba7f163c4a11628f55a4df523b3ef91a4505050565b60006115cb82610a31565b90506115d682610a31565b600083815260046020908152604080832080546001600160a01b03199081169091556001600160a01b0385168085526003845282852080546000190190558785526002909352818420805490911690555192935084927fddf252ad1be2c89b69c2b068fc378daa952ba7f163c4a11628f55a4df523b3ef908390a45050565b600680546001600160a01b038381166001600160a01b0319831681179093556040519116919082907f8be0079c531659141344cd1fd0a4f28419497f9722a3daafe3b4186f6b6457e090600090a35050565b816001600160a01b0316836001600160a01b0316036117085760405162461bcd60e51b815260206004820152601960248201527f4552433732313a20617070726f766520746f2063616c6c657200000000000000604482015260640161067a565b6001600160a01b03838116600081815260056020908152604080832094871680845294825291829020805460ff191686151590811790915591519182527f17307eab39ab6107e8899845ad3d59bd9653f200f220920489ca2b5937696c31910160405180910390a3505050565b61178084848461145c565b61178c84848484611cfd565b610c275760405162461bcd60e51b815260040161067a90612841565b60008060008060006117b989611dfb565b604051635b53405160e01b81526001600160a01b038c811660048301528b8116602483015263ffffffff8b16604483015289811660648301529193509083169150635b53405190608401608060405180830381865afa158015611820573d6000803e3d6000fd5b505050506040513d601f19601f8201168201806040525081019061184491906128af565b929c919b50995090975095505050505050565b600080600061186587611ab3565b91509150816001600160a01b03166339255d5b82836001600160a01b031663232d2b588b8b8b8b600067ffffffffffffffff8111156118a6576118a661217f565b6040519080825280601f01601f1916602001820160405280156118d0576020820181803683370190505b5060405160240161135e9594939291906128ff565b60008060006118f387611dfb565b604051632266eabb60e21b81526001600160a01b038a81166004830152898116602483015263ffffffff8916604483015260648201889052919350908316915063899baaec906084016040805180830381865afa158015611958573d6000803e3d6000fd5b505050506040513d601f19601f8201168201806040525081019061197c9190612946565b925092505094509492505050565b600080600061199886611ab3565b91509150816001600160a01b03166339255d5b82836001600160a01b031663b96731c28a8a8a600067ffffffffffffffff8111156119d8576119d861217f565b6040519080825280601f01601f191660200182016040528015611a02576020820181803683370190505b50604051602401611a169493929190612972565b60408051808303601f1901815291815260208201805160e094851b6001600160e01b03909116179052519185901b6001600160e01b0319168252611a5f939250906004016126fc565b6000604051808303816000875af1158015611a7e573d6000803e3d6000fd5b505050506040513d6000823e601f3d908101601f19168201604052611aa69190810190612743565b5060019695505050505050565b7f65599bf746e17a00ea62e3610586992d88101b78eec3cf380706621fb97ea837547fa832ee1924ea960211af2df07d65d166232018f613ac6708043cd8f8773eddeb546001600160a01b038116611c49576001600160a01b038216611b7857826001600160a01b03166320bc44256040518163ffffffff1660e01b8152600401602060405180830381865afa158015611b51573d6000803e3d6000fd5b505050506040513d601f19601f82011682018060405250810190611b7591906129af565b91505b604051635b69006f60e11b81527f8aedc3b5d4bf031e11a7e2940f7251c005698405d58e02e1c247fed3b1b3a67460048201526001600160a01b0383169063b6d200de90602401602060405180830381865afa158015611bdc573d6000803e3d6000fd5b505050506040513d601f19601f82011682018060405250810190611c0091906129af565b9050817f65599bf746e17a00ea62e3610586992d88101b78eec3cf380706621fb97ea83755807fa832ee1924ea960211af2df07d65d166232018f613ac6708043cd8f8773eddeb555b6001600160a01b038216611c5f57611c5f6129cc565b6001600160a01b038116611c7557611c756129cc565b915091565b60006001600160e01b031982166380ac58cd60e01b1480611cab57506001600160e01b03198216635b5e139f60e01b145b8061052557506301ffc9a760e01b6001600160e01b0319831614610525565b611cd48383611f60565b611ce16000848484611cfd565b61071b5760405162461bcd60e51b815260040161067a90612841565b60006001600160a01b0384163b15611df357604051630a85bd0160e11b81526001600160a01b0385169063150b7a0290611d419033908990889088906004016129e2565b6020604051808303816000875af1925050508015611d7c575060408051601f3d908101601f19168201909252611d7991810190612a15565b60015b611dd9573d808015611daa576040519150601f19603f3d011682016040523d82523d6000602084013e611daf565b606091505b508051600003611dd15760405162461bcd60e51b815260040161067a90612841565b805181602001fd5b6001600160e01b031916630a85bd0160e11b1490506113f6565b5060016113f6565b7f65599bf746e17a00ea62e3610586992d88101b78eec3cf380706621fb97ea837547fa832ee1924ea960211af2df07d65d166232018f613ac6708043cd8f8773eddeb546001600160a01b038116611c49576001600160a01b038216611ec057826001600160a01b03166320bc44256040518163ffffffff1660e01b8152600401602060405180830381865afa158015611e99573d6000803e3d6000fd5b505050506040513d601f19601f82011682018060405250810190611ebd91906129af565b91505b604051635b69006f60e11b81527f15609310ae3c30189a1218b7adabaf36c267255e70cf91b6cba384367d9eda3260048201526001600160a01b0383169063b6d200de90602401602060405180830381865afa158015611f24573d6000803e3d6000fd5b505050506040513d601f19601f82011682018060405250810190611f4891906129af565b90506001600160a01b038216611c5f57611c5f6129cc565b6001600160a01b038216611fb65760405162461bcd60e51b815260206004820181905260248201527f4552433732313a206d696e7420746f20746865207a65726f2061646472657373604482015260640161067a565b6000818152600260205260409020546001600160a01b03161561201b5760405162461bcd60e51b815260206004820152601c60248201527f4552433732313a20746f6b656e20616c7265616479206d696e74656400000000604482015260640161067a565b6000818152600260205260409020546001600160a01b0316156120805760405162461bcd60e51b815260206004820152601c60248201527f4552433732313a20746f6b656e20616c7265616479206d696e74656400000000604482015260640161067a565b6001600160a01b038216600081815260036020908152604080832080546001019055848352600290915280822080546001600160a01b0319168417905551839291907fddf252ad1be2c89b69c2b068fc378daa952ba7f163c4a11628f55a4df523b3ef908290a45050565b6001600160e01b03198116811461090c57600080fd5b60006020828403121561211357600080fd5b813561211e816120eb565b9392505050565b6001600160a01b038116811461090c57600080fd5b6000806040838503121561214d57600080fd5b823561215881612125565b915060208301356001600160601b038116811461217457600080fd5b809150509250929050565b634e487b7160e01b600052604160045260246000fd5b604051601f8201601f1916810167ffffffffffffffff811182821017156121be576121be61217f565b604052919050565b600067ffffffffffffffff8211156121e0576121e061217f565b50601f01601f191660200190565b60006122016121fc846121c6565b612195565b905082815283838301111561221557600080fd5b828260208301376000602084830101529392505050565b60006020828403121561223e57600080fd5b813567ffffffffffffffff81111561225557600080fd5b8201601f8101841361226657600080fd5b6113f6848235602084016121ee565b60005b83811015612290578181015183820152602001612278565b50506000910152565b600081518084526122b1816020860160208601612275565b601f01601f19169290920160200192915050565b60208152600061211e6020830184612299565b6000602082840312156122ea57600080fd5b5035919050565b6000806040838503121561230457600080fd5b823561230f81612125565b946020939093013593505050565b60006020828403121561232f57600080fd5b813561211e81612125565b60008060006060848603121561234f57600080fd5b833561235a81612125565b9250602084013561236a81612125565b929592945050506040919091013590565b6000806040838503121561238e57600080fd5b50508035926020909101359150565b801515811461090c57600080fd5b600080604083850312156123be57600080fd5b82356123c981612125565b915060208301356121748161239d565b600080600080608085870312156123ef57600080fd5b84356123fa81612125565b9350602085013561240a81612125565b925060408501359150606085013567ffffffffffffffff81111561242d57600080fd5b8501601f8101871361243e57600080fd5b61244d878235602084016121ee565b91505092959194509250565b6000806040838503121561246c57600080fd5b823561247781612125565b9150602083013561217481612125565b600181811c9082168061249b57607f821691505b6020821081036124bb57634e487b7160e01b600052602260045260246000fd5b50919050565b601f82111561071b57600081815260208120601f850160051c810160208610156124e85750805b601f850160051c820191505b81811015612507578281556001016124f4565b505050505050565b815167ffffffffffffffff8111156125295761252961217f565b61253d816125378454612487565b846124c1565b602080601f831160018114612572576000841561255a5750858301515b600019600386901b1c1916600185901b178555612507565b600085815260208120601f198616915b828110156125a157888601518255948401946001909101908401612582565b50858210156125bf5787850151600019600388901b60f8161c191681555b5050505050600190811b01905550565b634e487b7160e01b600052601160045260246000fd5b6000600182016125f7576125f76125cf565b5060010190565b6020808252602d908201527f4552433732313a2063616c6c6572206973206e6f7420746f6b656e206f776e6560408201526c1c881bdc88185c1c1c9bdd9959609a1b606082015260800190565b8082028115828204841417610525576105256125cf565b60008261267f57634e487b7160e01b600052601260045260246000fd5b500490565b81810381811115610525576105256125cf565b6000602082840312156126a957600080fd5b5051919050565b80820180821115610525576105256125cf565b6001600160a01b038416815263ffffffff831660208201526060604082018190526000906126f390830184612299565b95945050505050565b6001600160a01b038316815260606020820181905260009061272090830184612299565b8281036040938401526002815261060f60f31b6020820152919091019392505050565b60006020828403121561275557600080fd5b815167ffffffffffffffff81111561276c57600080fd5b8201601f8101841361277d57600080fd5b805161278b6121fc826121c6565b8181528560208385010111156127a057600080fd5b6126f3826020830160208601612275565b6001600160a01b038681168252858116602083015263ffffffff851660408301528316606082015260a0608082018190526000906127f190830184612299565b979650505050505050565b60208082526025908201527f4552433732313a207472616e736665722066726f6d20696e636f72726563742060408201526437bbb732b960d91b606082015260800190565b60208082526032908201527f4552433732313a207472616e7366657220746f206e6f6e20455243373231526560408201527131b2b4bb32b91034b6b83632b6b2b73a32b960711b606082015260800190565b80516001600160801b03811681146128aa57600080fd5b919050565b600080600080608085870312156128c557600080fd5b84516128d08161239d565b60208601519094506128e18161239d565b92506128ef60408601612893565b6060959095015193969295505050565b6001600160a01b03868116825263ffffffff86166020830152841660408201526001600160801b038316606082015260a0608082018190526000906127f190830184612299565b6000806040838503121561295957600080fd5b8251915061296960208401612893565b90509250929050565b60018060a01b038516815263ffffffff841660208201528260408201526080606082015260006129a56080830184612299565b9695505050505050565b6000602082840312156129c157600080fd5b815161211e81612125565b634e487b7160e01b600052600160045260246000fd5b6001600160a01b03858116825284166020820152604081018390526080606082018190526000906129a590830184612299565b600060208284031215612a2757600080fd5b815161211e816120eb56fea26469706673582212201a5e0de3048927c8662e253acf4de818199b6000f5fde6bc4e94b17e0bac6da464736f6c63430008110033a832ee1924ea960211af2df07d65d166232018f613ac6708043cd8f8773eddeb",
  "linkReferences": {},
  "deployedLinkReferences": {}
}